:020000040800F2
:10000000181F00209D010008B1160008730E00089B
:10001000AD1600085D080008B91F000800000000C8
:100020000000000000000000000000007918000837
:10003000D10C0008000000002D170008B5010008D1
:10004000B7010008B7010008B7010008B7010008B0
:10005000B7010008B7010008B7010008B7010008A0
:10006000B7010008B7010008B7010008B701000890
:10007000B7010008B7010008B7010008B701000880
:10008000B7010008B7010008B7010008B701000870
:10009000B7010008B7010008B7010008B701000860
:1000A000B7010008B7010008B7010008B701000850
:1000B000F9190008B7010008B7010008B7010008E6
:1000C000B7010008B7010008B7010008B701000830
:1000D000B7010008D91B0008611C0008B70100081F
:1000E000B7010008B7010008B7010008B701000810
:1000F000B7010008B7010008B7010008B701000800
:10010000B7010008B7010008B7010008B7010008EF
:10011000B7010008B7010008B7010008711A00080C
:10012000B7010008B7010008B7010008B7010008CF
:10013000B7010008B7010008B7010008B7010008BF
:10014000B7010008B7010008B7010008B7010008AF
:10015000B7010008B7010008B7010008B70100089F
:10016000B7010008B7010008B7010008B70100088F
:10017000B7010008B7010008B7010008B70100087F
:10018000B7010008B7010008DFF80CD000F0C0FA92
:1001900000480047592D0008181F002006488047D6
:1001A00006480047FEE7FEE7FEE7FEE7FEE7FEE75C
:1001B000FEE7FEE7FEE7FEE7911900088901000867
:1001C000421C10F8011B0029FBD1801A70472DE951
:1001D000FE4F81EA030404F0004421F00041009442
:1001E0004FF0000B23F0004350EA01045ED052EAC6
:1001F00003045BD0C3F30A54C1F30A552C44A4F2A0
:10020000F3340194A0FB0254C1F3130141F48011B3
:10021000C3F3130343F4801301FB024400FB034EBA
:10022000840A970A44EA815447EA8357A4FB076883
:1002300002958D0A05FB07854FEA932C04FB0C54AD
:100240002705029D4FEA065847EA1637B5EB080521
:100250006EEB070C870E920E47EA811742EA831273
:10026000A7FB0201B6EB0B0164EB00042B0D43EA84
:100270000C335E1844EB1C50DA465146E7FB020192
:10028000C5F313044FEA0B3343EA14534FEA043225
:10029000019C43EA0603A4F10C040294009CCDE9FE
:1002A00000B400F027F903B0BDE8F08F002001464C
:1002B000F9E72DE9F04D81EA030404F0004B21F049
:1002C000004514464FF0000A23F0004150EA0502B1
:1002D00020D054EA01021DD0C5F30A570246C5F3E7
:1002E0001303C1F31300C1F30A5640F4801543F41D
:1002F0008013A7EB0608101BD64608F2FD3873EBF7
:10030000050002D308F1010801E092185B41B8F141
:10031000000F03DA00200146BDE8F08D00204FF405
:100320008011064684460EE0171B73EB050705D3C4
:10033000121B63EB050306434CEA010C49084FEA24
:10034000300092185B4150EA0107EDD152EA0300F8
:1003500012D082EA040083EA0501084305D0101B8D
:10036000AB4106D20122002306E000224FF00043F9
:1003700002E06FF0010253101AEB06004CEB08513B
:1003800010EB0A0041EB0B01BDE8F04D00F0A5B801
:100390000EB540F2334102910021CDE900110A4629
:1003A0000B4600F0A7F803B000BDC1F30A5210B528
:1003B000C1F3130140F2FF3341F480119A4201DA94
:1003C000002010BD40F233439A42A2F2334203DCD4
:1003D000524200F072F810BD904010BD30B50029B7
:1003E00004DB4FF00044404264EB0101002B04DBCE
:1003F0004FF00044524264EB03038B4208BF824239
:1004000030BD000030B5002904DB4FF0004440420D
:1004100064EB0101002B04DB4FF00044524264EB1B
:100420000303994208BF904230BD000030B50B462F
:10043000014600202022012409E021FA02F59D4214
:1004400005D303FA02F5491B04FA02F52844151EE8
:10045000A2F10102F1DC30BD2DE9F05F054600207C
:1004600092469B4688460646814640241BE0284625
:1004700041464746224600F020F853465A46C01AE5
:10048000914110D311461846224600F053F92D1A17
:1004900067EB01084F4622460120002100F04AF98F
:1004A00017EB00094E41201EA4F10104DFDC484691
:1004B00031462A464346BDE8F09F202A04DB203A15
:1004C00021FA02F00021704721FA02F3D040C2F174
:1004D0002002914008431946704710B5002B08DAF6
:1004E000401C41F1000192185B411A4301D120F0F8
:1004F000010010BD2DE9F04D92469B4611B1B1FAB5
:1005000081F202E0B0FA80F22032904600F012F957
:1005100004460F4640EA0A0041EA0B0153465A4698
:10052000084313D0114653EA010019D0C8F1400224
:100530005046FFF7C2FF05460E4650465946424612
:1005400000F0F8F8084305D0012004E020463946C1
:10055000BDE8F08D0020054346EAE0762C433743A2
:100560000A986305E40AA0EB08000022FD0A44EAA9
:1005700047540A3002D500200146E9E70105101969
:100580006941DDE9084500196941BDE8F04DA4E77E
:100590002DE9FE4F804681EA0300C00F0C46009013
:1005A00021F0004123F00045B8EB0200A94105D23B
:1005B0004046214690461C460B46024623F000402A
:1005C000104347D0270DC7F30A00C3F30A51029026
:1005D000401A019040286BDAC3F3130040F4801BEB
:1005E0000098924620B10023D2EB030A63EB0B0B79
:1005F00001985946C0F14002504600F09BF806466B
:100600000D4650465946019A00F0A3F810EB080039
:100610006141002487EA115284EAE7731A4340D00B
:10062000009A62B3019A012A4FEA075215DC001BB7
:1006300061EB02014FF0004202EA0752CDE90042AD
:10064000001C41F5801132462B46FFF753FF03B0E3
:10065000BDE8F08F40462146F9E7001B61EB02013F
:10066000001C41F5801300185B412018A2F500170B
:1006700047EB030140EAD570B6196D4111E06D08F2
:100680004FEA360645EAC0754FEA0752001B61EB98
:100690000201001C41F5801149084FEA30000019A1
:1006A000514132462B4603B0BDE8F04FFFF715BF6E
:1006B0000098012240000023D0EB020263EBE073BC
:1006C000009821464FEAE074B8EB000061EB0401AA
:1006D000E9E783F000435BE781F0004158E7C1F3AD
:1006E0000A52C1F3130140F2FF3341F480119A42E0
:1006F00002DA00200146704740F233439A42A2F2E8
:10070000334202DC5242FFF7D8BE00F013B80000BB
:10071000064C074D06E0E06840F0010394E807004E
:1007200098471034AC42F6D3FFF732FDB8330008D7
:10073000D8330008202A04DB203A00FA02F1002016
:1007400070479140C2F1200320FA03F3194390400F
:100750007047202A06DBCB17203A41FA02F043EA21
:10076000E07306E041FA02F3D040C2F1200291406A
:1007700008431946704770B58C1810F8015B15F0E6
:10078000070301D110F8013B2A1106D110F8012B03
:1007900003E010F8016B01F8016B5B1EF9D12B0728
:1007A00005D40023521E0DD401F8013BFAE710F8DE
:1007B000013BCB1A921C03E013F8015B01F8015BCB
:1007C000521EF9D5A142D8D3002070BDF0B507461E
:1007D0000C4615461E462A2000F0FCFE380A00F0A2
:1007E000DDFE384600F0DAFE280A00F0D7FE284683
:1007F00000F0D4FE2B2000F0EDFE200A00F0CEFE2B
:10080000204600F0CBFE300A00F0C8FE304600F073
:10081000C5FE2C2000F0DEFEF0BD00001CB501215D
:10082000022000F085FF4FF48070009001208DF8C9
:10083000040000208DF8060003208DF8050002203A
:100840008DF807006946044800F09BFA4FF4807168
:10085000014800F00AFB1CBD0004024000BFFEE797
:100860001CB50121084600F063FF03200090012021
:100870008DF8040000208DF8060001208DF8070097
:1008800003208DF805006946094800F07AFAF02047
:10089000009000208DF8040001208DF8070003204F
:1008A0008DF805006946024800F06BFA1CBD000097
:1008B00000000240F8B5FF26FE48056825F0F0006C
:1008C00040F05000FB4908600020FB49086001200F
:1008D000FA49C1F88402F84908310860F749C1F8BB
:1008E0008C021021F34800F0B7FA07462021F148A6
:1008F00000F0B2FA47EA40074021EE4800F0ACFAB7
:1009000047EA80078021EB4800F0A6FA47EAC000DA
:1009100000F00F040F2C54D00A2002F0A7F9102188
:10092000E44800F099FA07462021E24800F094FAE2
:1009300047EA40074021DF4800F08EFA47EA800787
:100940008021DC4800F088FA47EAC00000F00F047C
:100950000F2C36D0072C0BD00B2C07D00D2C03D02E
:100960000E2C07D1002605E0012603E0022601E057
:10097000032600BF00BF0020009000BF1021CD481B
:1009800000F06AFA07462021CA4800F065FA47EAF3
:1009900040074021C74800F05FFA47EA80078021FE
:1009A000C44800F059FA47EAC00000F00F000F28D1
:1009B00006D00098401C4CF2503100908842DDD3A4
:1009C00000BF0120BC4908600020BC49C1F8840276
:1009D0000120B94908310860B849C1F88C021021DA
:1009E000B44800F039FA07462021B24800F034FA42
:1009F00047EA40074021AF4800F02EFA47EA800757
:100A00008021AC4800F028FA47EAC00000F00F044B
:100A10000F2C54D00A2002F029F91021A54800F02B
:100A20001BFA07462021A34800F016FA47EA4007C0
:100A30004021A04800F010FA47EA800780219D4835
:100A400000F00AFA47EAC00000F00F040F2C36D07D
:100A5000072C0BD00B2C07D00D2C03D00E2C07D15C
:100A6000042605E0052603E0062601E0072600BF70
:100A700000BF0020009000BF10218E4800F0ECF96C
:100A8000074620218B4800F0E7F947EA400740215C
:100A9000884800F0E1F947EA80078021854800F0A6
:100AA000DBF947EAC00000F00F000F2806D00098DD
:100AB000401C4CF2503100908842DDD300BF012031
:100AC0007D4908607D49C1F8840200207A490831D7
:100AD000086001207949C1F88C021021754800F0A6
:100AE000BBF907462021734800F0B6F947EA4007F2
:100AF0004021704800F0B0F947EA800780216D4836
:100B000000F0AAF947EAC00000F00F040F2C54D0FF
:100B10000A2002F0ABF81021664800F09DF9074664
:100B20002021644800F098F947EA400740216148D5
:100B300000F092F947EA800780215E4800F08CF9C6
:100B400047EAC00000F00F040F2C36D0072C0BD062
:100B50000B2C07D00D2C03D00E2C07D1082605E056
:100B6000092603E00A2601E00B2600BF00BF002093
:100B7000009000BF10214F4800F06EF90746202179
:100B80004C4800F069F947EA40074021494800F025
:100B900063F947EA80078021464800F05DF947EA9B
:100BA000C00000F00F000F2806D00098401C4CF247
:100BB000503100908842DDD300BF01203E490860DB
:100BC0003E49C1F884023C490831086000203B4995
:100BD000C1F88C021021374800F03EF90746202169
:100BE000344800F039F947EA40074021314800F025
:100BF00033F947EA800780212E4800F02DF947EAB3
:100C0000C00000F00F040F2C5BD00A2002F02EF879
:100C10001021284800F020F907462021254800F03F
:100C20001BF947EA40074021224800F015F947EA3E
:100C3000800780211F4800F00FF947EAC00000F04C
:100C40000F040F2C3DD0072C0BD00B2C07D00D2CF4
:100C500003D00E2C07D10C2605E00D2603E00E264E
:100C600001E00F2600BF00BF0020009000BF102150
:100C7000104800F0F1F8074620210E4800F0ECF88B
:100C800047EA400740210B4800F0E6F847EA8007B2
:100C90008021084800F0E0F847EAC00000F00F00AB
:100CA0000F2806D00098401C4CF25031009088422A
:100CB000DDD305E0000002408002404200004042D7
:100CC00000BF024805603046F8BD00000000024049
:100CD00070472DE9F04306460F46904600244546EE
:100CE0000320A0EB480948E03A1B91B2721B90B276
:100CF00000F052F93A1B91B2721990B200F04CF91F
:100D00007A1991B2321B90B200F046F93A1B91B2B7
:100D1000721B90B200F040F97A1B91B2321B90B274
:100D200000F03AF93A1991B2721990B200F034F920
:100D30007A1B91B2321990B200F02EF97A1991B261
:100D4000321990B200F028F93A1991B2721B90B2A0
:100D500000F022F9641CB9F1000F03DAA000801D35
:100D6000814404E0601B80000A3081446D1E7A19C2
:100D700091B2321990B200F00FF9AC42B4DDBDE887
:100D8000F083F0B50A4600210023002400BF3DE0B7
:100D9000012505FA01F3156805EA03049C4234D1E4
:100DA00005684F000326BE40B543056015794E0027
:100DB000B5400668354305601579012D02D01579D7
:100DC000022D16D185684F000326BE40B5438560CD
:100DD00055794E00B54086683543856045680126E3
:100DE0008E40B5434560456896798E40B6B235432E
:100DF0004560C5684F000326BE40B543C560D57940
:100E00004E00B540C6683543C560491C1029BFD3A4
:100E1000F0BDF0B5002300244D07ED0E02FA05F3F6
:100E2000CE1000F1200555F826504E07F70E0F267C
:100E3000BE40B543CF1000F1200646F82750CE1033
:100E400000F1200555F8265045EA0304CE1000F1C4
:100E5000200545F82640F0BD0246002013690B40EE
:100E60000BB1012000E000207047418370470183EF
:100E7000704700BFFEE700001CB50121042000F010
:100E800057FC4FF46050009000208DF804000120C2
:100E90008DF8070003208DF8050069460148FFF72B
:100EA00070FF1CBD000802402DE9F04104462712E6
:100EB00004F0FF0840F23F13EF2200210846FFF73D
:100EC00085FC00250CE0002605E04146384600F090
:100ED00073FB701C86B2B6F5A07FF6DB681C85B28A
:100EE000F02DF0DBBDE8F0812DE9FF4F84B08146A5
:100EF0008A460020039002900698A0EB0905079807
:100F0000A0EB0A06CDF80490CDF800A0002D01DD7D
:100F1000012705E00DB9002702E04FF0FF376D42D1
:100F2000002E02DD4FF0010806E016B94FF0000870
:100F300002E04FF0FF387642B54201DD2C4600E07A
:100F400034464FF0000B21E0009A91B2019A90B222
:100F500000F022F80398284403900298304402904D
:100F60000398A04205DD0398001B039001983844C4
:100F700001900298A04205DD0298001B02900098A3
:100F8000404400900BF101001FFA80FB601C834578
:100F9000DADD08B0BDE8F08F30B504460D462B46CB
:100FA000224629462046FFF711FC0248008800F03F
:100FB000F5FA30BD9215002078B504460D46074875
:100FC00000886E1CB3B2661CB2B26E1EB1B2661E51
:100FD0000090B0B200F022F878BD00009215002019
:100FE000F0B504460D4616461F462B4632462946A6
:100FF0002046FFF779FF3B46224629462046FFF769
:1010000073FF3B46324639462046FFF76DFF3B46AD
:10101000324629463046FFF767FFF0BD2DE9F0471D
:1010200004460D4616461F46DDF820A03B463246D4
:1010300029462046FFF7CAFBA8460EE0A14606E077
:10104000504600F0ABFA09F101001FFA80F9B145F2
:10105000F6DD08F101001FFA80F8B845EEDDBDE8C5
:10106000F08700001CB50121082000F061FB012081
:101070008DF8040000208DF806004FF2F370009008
:1010800001208DF8070003208DF8050069461848F7
:10109000FFF777FE0121022000F04AFB01208DF8C6
:1010A000040000208DF806000220009001208DF839
:1010B000070003208DF8050069460E48FFF761FE22
:1010C0000121102000F034FB01208DF804000020E5
:1010D0008DF806004FF68070009001208DF8070013
:1010E00003208DF8050069460348FFF74AFE1CBD42
:1010F000000C0240000402400010024010B5012024
:10110000A3490860A348D0F89C0218BB00210846F8
:1011100000F06EFAA0A20021084600F01CFA00239D
:101120001A461946184600F0D7F900231A46194600
:10113000184600F037F900210846FFF73DFF00236D
:101140001A4619461846FFF74BFF00221146104673
:10115000FFF7BFFD01208E490C3908608D49C1F8A9
:10116000940200208D490860142001F07FFD0120C9
:101170008B49C1F88402142001F078FD00208449D5
:101180000860CF2000F026FA002000F007FAC12006
:1011900000F004FA302000F001FAED2000F01AFA15
:1011A000642000F0FBF9032000F0F8F9122000F0B1
:1011B000F5F9812000F0F2F9CB2000F00BFA39208C
:1011C00000F0ECF92C2000F0E9F9002000F0E6F93D
:1011D000342000F0E3F9022000F0E0F9EA2000F00A
:1011E000F9F9002000F0DAF9002000F0D7F9E82042
:1011F00000F0F0F9852000F0D1F9102000F0CEF9D0
:10120000792000F0CBF9C02000F0E4F9232000F0B1
:10121000C5F9C12000F0DEF9112000F0BFF9C220AD
:1012200000F0D8F9112000F0B9F9C52000F0D2F98A
:101230003D2000F0B3F9302000F0B0F9C72000F0F5
:10124000C9F9AA2000F0AAF93A2000F0C3F9552004
:1012500000F0A4F9362000F0BDF9082000F09EF956
:10126000B12000F0B7F9002000F098F9112000F04B
:1012700095F9B62000F0AEF90A2000F08FF9A2200F
:1012800000F08CF9F22000F0A5F9002000F086F9BA
:10129000F72000F09FF9202000F080F9F12000F005
:1012A00099F9012000F07AF9302000F077F9262032
:1012B00000F090F9012000F071F9E02000F08AF9C7
:1012C0000F2000F06BF93F2000F068F92F2000F0AC
:1012D00065F90C2000F062F9102000F05FF90A2097
:1012E00000F05CF9532000F059F9D52000F056F9D0
:1012F000402000F053F90A2000F050F9132000F0CC
:101300004DF9032000F04AF9082000F047F90320C6
:1013100000F044F9002000F041F9E12000F05AF912
:10132000002000F03BF9002000F038F9102000F018
:1013300035F9032000F032F90F2000F02FF90520D5
:1013400000F02CF92C2000F029F9A22000F026F959
:101350003F2000F023F9052000F020F90E2000F0D6
:101360001DF90C2000F01AF9372000F017F93C2085
:1013700000F014F90F2000F011F9112000F02AF903
:10138000502001F073FC292000F024F910BD00006A
:101390009C82414200804142200000008482404201
:1013A000008040422DE9F0430646894617461D4617
:1013B000002419E0281B401EC1B20A2001F0AEFE35
:1013C000B7FBF0F00A21B0FBF1F201FB120808F1C3
:1013D0003001CAB2082101FB046188B200234946EA
:1013E00000F006F8601CC4B2AC42E3DBBDE8F08359
:1013F0002DE9FF4F05460F461646AA463348B0F87A
:1014000000B0E02D02DCB7F5987F01DDBDE8FF8F6D
:10141000A6F12000C6B207F10F03EA1D394628469F
:10142000FFF7D4F9039858BB002426E004EB06101C
:10143000274911F800904FF0000816E009F001006C
:1014400018B12248A0F800B003E0224800881F49E4
:1014500008801E48008800F0A1F84FEA6909681C5E
:1014600085B208F1010000F0FF08B8F1080FE5DBD4
:101470005546781C87B2601CC4B2102CD6DB20E025
:1014800000241CE004EB0610114911F800904FF005
:1014900000080FE009F0010030B13A1991B205EBF4
:1014A000080290B2FFF778FD4FEA690908F10100E0
:1014B00000F0FF08B8F1080FECDB601CC4B2102C80
:1014C000E0DB0248A0F800B000BF9FE792150020C3
:1014D000A00F0020901500202DE9F0470646894610
:1014E00017461D464FF0000ABFB200242FE0281B0C
:1014F000401EC1B20A2001F011FEB7FBF0F00A2134
:10150000B0FBF1F201FB1208BAF1000F11D1681E15
:10151000A0420EDDB8F1000F09D1082101FB0461E2
:1015200088B2002320224946FFF762FF0DE04FF00A
:10153000010A08F13001CAB2082101FB046188B236
:1015400000234946FFF754FF00BF601CC4B2AC4201
:10155000CDDBBDE8F08770B505460E46144619E0B0
:10156000E02D03DD002506F1100086B2B6F5987F68
:1015700006DD0020054606464FF47840FFF794FC50
:101580002278002331462846FFF732FF05F1080094
:1015900085B2641C20780028E2D170BD10B50446E5
:1015A000012004490860E1B2C4F3072000F02AF8E2
:1015B00010BD0000B482414230B504460D46012002
:1015C000034908602946204600F01CF830BD0000A1
:1015D000B482414210B50446002004490860E1B2DB
:1015E000C4F3072000F00EF810BD0000B4824142A1
:1015F00030B505460C462846FFF7ECFF2046FFF7BE
:10160000CDFF30BD00F00102244B1A60C0F3400250
:10161000234BC3F8B022C0F38002204B08331A607A
:10162000C0F3C0021B1D1A60C0F300121B1D1A601C
:10163000C0F340121B4B1A60C0F380121B1D1A60CE
:10164000C2091B1D1A6001F00102164B18331A6003
:10165000C1F340021B1D1A60C1F38002114B203BF5
:101660001A60C1F3C0021B1D1A60C1F300120B4BBC
:10167000103B1A60C1F340121B1D1A60C1F38012A7
:101680001B1D1A60CA091B1D1A600022054B0C3B6A
:101690001A600122044BC3F894227047AC02424204
:1016A00000004242A08241420080414200BFFEE76A
:1016B0007047000070B5002100230F22C4781CB3CE
:1016C000174C246804F4E064C4F5E064C4F3072113
:1016D000C1F10404E3B20A4144789C40E1B2847849
:1016E000144021430C07210E0E4C057861550478F7
:1016F00004F01F050124AC4005786D11AD0005F123
:10170000E025C5F8004109E0047804F01F05012434
:10171000AC40054D0678761145F8264070BD0000B6
:101720000CED00E000E400E080E100E07047000024
:1017300029B1064A12680243044B1A6004E0034AC6
:1017400012688243014B1A60704700003038024033
:1017500029B1064A12680243044B1A6004E0034AA6
:1017600012688243014B1A60704700004038024003
:1017700029B1064A12680243044B1A6004E0034A86
:1017800012688243014B1A607047000044380240DF
:10179000F0B5002100220024022500260223324F4A
:1017A0003F6807F00C0121B1042905D0082937D181
:1017B00005E02E4F076036E02D4F076033E02A4FDB
:1017C0003F1F3F68C7F38056274F3F1F3F6807F012
:1017D0003F036EB1264FB7FBF3F7DFF88CC0ACF1D7
:1017E000040CDCF800C0CCF3881C07FB0CF40CE004
:1017F0001E4FB7FBF3F7DFF870C0ACF1040CDCF858
:1018000000C0CCF3881C07FB0CF4174F3F1F3F6848
:10181000C7F301477F1C7D00B4FBF5F7076002E0CA
:10182000124F076000BF00BF0F4F3F6807F0F00185
:101830000909104F7A5C0768D74047600A4F3F6834
:1018400007F4E051890A0B4F7A5C4768D7408760FC
:10185000054F3F6807F46041490B064F7A5C4768C3
:10186000D740C760F0BD0000083802400024F400F3
:1018700000127A0000000020704700000CB5002024
:10188000019000903448006840F48030324908608C
:1018900000BF3148006800F4003000900198401CFF
:1018A0000190009818B90198B0F5A04FF1D12A48DD
:1018B000006800F4003010B10120009001E0002029
:1018C00000900098012846D123484030006840F03D
:1018D00080502149403108602048006840F4404071
:1018E0001E4908601C48083000681B490831086020
:1018F0000846006840F4004008600846006840F46C
:10190000A05008601648091F0860081F006840F0D2
:101910008070091F086000BF0F48006800F0007069
:101920000028F9D040F205700E4908600A480830D6
:10193000006820F003000849083108600846006884
:1019400040F00200086000BF03480830006800F063
:101950000C000828F8D10CBD00380240007000408F
:1019600008544007003C0240042808D14FF0E02111
:10197000096941F004014FF0E022116107E04FF0E6
:10198000E021096921F004014FF0E0221161704764
:1019900010B51548006840F47000134908601348FA
:1019A000006840F001001149086000200F4908312B
:1019B00008600E4800680E4908400C4908600D4850
:1019C000091D0860081F006820F48020091F0860B6
:1019D000002006490C310860FFF750FF4FF000600F
:1019E00001498039086010BD88ED00E000380240F0
:1019F000FFFFF6FE1030002410B50121880700F02B
:101A00008DF840B10121880700F076F8024800689F
:101A1000401C0149086010BD1C0000201FB50121B9
:101A20000846FFF795FE4CF24F3002905320ADF878
:101A300004000020ADF80C00ADF8060001A94FF03D
:101A4000804000F087F801221146900700F077F8F7
:101A50001C208DF8000000208DF801008DF8020098
:101A600001208DF803006846FFF724FE1FBD00002B
:101A700010B50121094800F051F868B1012107486B
:101A800000F03AF80648008840F400400449088015
:101A90000021024800F033F810BD0000001400409F
:101AA000981500207FB505460C4601212020FFF740
:101AB0004FFE0295ADF804400020ADF80C00ADF8E3
:101AC000060001A90B4800F045F80122114609481B
:101AD00000F035F837208DF8000002208DF8010065
:101AE00000208DF8020001208DF803006846FFF702
:101AF000E1FD7FBD00140040CA430282704721B15E
:101B0000028842F00102028004E002884FF6FE7370
:101B10001A40028070470146486A704730B5024655
:101B2000002000230024158A05EA0103958905EAAF
:101B3000010413B10CB1012000E0002030BD1AB146
:101B400083890B43838102E083898B4383817047C0
:101B50004162704700220288184B98420ED0184B01
:101B600098420BD0B0F1804F08D0164B984205D068
:101B7000154B984202D0154B984204D14FF68F7303
:101B80001A404B881A43124B984207D0114B984287
:101B900004D04FF6FF431A400B891A4302804B686A
:101BA000C3620B880385054B984202D0044B9842D0
:101BB00001D18B7A038601238382704700000140A4
:101BC000000401400004004000080040000C0040F8
:101BD000001000400014004010B540F225511D488F
:101BE00000F098F810B31B4800F04EF9C4B21A4840
:101BF000008800F40040C8B91748008800F480400D
:101C000060B10A2C03D000201349088020E012485C
:101C1000008840F400401049088019E00D2C06D1DE
:101C20000D48008840F480400B49088010E00A48C5
:101C30000088C0F30D0009490C5407480088401C77
:101C40000549088008460088C72801DD0020088073
:101C500010BD000000100140180000209C1500205D
:101C600010B540F22551164800F054F8F8B1144868
:101C700000F00AF9C4B21348008800F40040B0B97B
:101C800010480088B0F5167F12DA00210E48FFF7E1
:101C90005FFF0C48008818B901210B48FFF72FFFA0
:101CA00008490888411C074A118008490C5405E07E
:101CB0000448008840F400400249088010BD00003C
:101CC00000440040981500200014004064160020D5
:101CD00001F40072B2F5007F00D100BFCA43028058
:101CE000704721B1828942F40052828104E08289E6
:101CF0004DF6FF731A408281704702460020B1F50D
:101D0000007F00D100BF13880B400BB1012000E021
:101D10000020704770B502460024002300250020F3
:101D200040F66A16B14200D100BFC1F3421501F07E
:101D30001F03012606FA03F3012D02D196893340D1
:101D400006E0022D02D1168A334001E0968A334024
:101D50000C12012606FA04F41688344013B10CB1B3
:101D6000012000E0002070BDF0B5034600240026ED
:101D70000025002040F66A17B94200D100BF18467E
:101D8000C1F3421401F01F06012707FA06F5012CE2
:101D900001D10C3004E0022C01D1103000E01430ED
:101DA0001AB107682F43076002E00768AF43076076
:101DB000F0BD00002DE9FF4705460E460024A14670
:101DC00000BFA046B08900B100BF2C8A24F4405463
:101DD000F08804432C82AC8941F20C608443B088C3
:101DE00031890843718908430443AC81AC8A24F4E7
:101DF0004074B0890443AC826846FFF7C9FC2048B0
:101E0000854202D01F48854202D1DDF80C9001E0E6
:101E1000DDF80890A88900F4004040B109EBC90042
:101E200000EB091031684900B0FBF1F707E009EB5E
:101E3000C90000EB091031688900B0FBF1F764209C
:101E4000B7FBF0F004012009642101FB1078A88998
:101E500000F4004040B1322000EBC800B0FBF1F0CC
:101E600000F00700044308E0322000EB0810642172
:101E7000B0FBF1F000F00F0004432C81BDE8FF87B8
:101E8000001001400014014001468888C0F308009A
:101E90007047C1F308028280704700001CB5012121
:101EA0000846FFF745FC4FF40060009001208DF8D4
:101EB000040000208DF8060001208DF807000320A3
:101EC0008DF8050069460A48FEF75BFF4FF4805025
:101ED000009000208DF8040001208DF807000320F9
:101EE0008DF8050069460248FEF74BFF1CBD000057
:101EF0000000024010B52DED028B00BF4FF4805161
:101F00002048FEF7A9FF0128F8D000F043F800BFF1
:101F10004FF480511B48FEF79FFF0028F8D00021A6
:101F20004FF08040FFF714FE0020174908600121A0
:101F30008807FFF7E4FD00BF4FF480511148FEF71A
:101F40008BFF0128F8D000214FF08040FFF7D7FD2C
:101F50004FF08040FFF7DFFD0B49096840F635423E
:101F6000514300EB01142046FEF712FA9FED070BD8
:101F700053EC102BFEF79DF941EC100BBDEC028BDE
:101F800010BD0000000002401C000020666666666E
:101F900066664D4010B54FF400610648FEF767FFD6
:101FA000142000F07FFE4FF400610248FEF75DFF51
:101FB00010BD00000000024000BFFEE70FB4054B5B
:101FC00010B503A9044A029800F0F0F810BC5DF8BF
:101FD00014FB00003D2D0008140000200FB4084B36
:101FE00010B504A902AA039800F0E0F8044602A97B
:101FF000002000F013FE204610BC5DF814FB00002A
:102000001D2C000837B514460846064B6A46214683
:1020100000F044FA04466946002000F004FE204621
:102020003EBD0000272C000802E008C8121F08C1AE
:10203000002AFAD170477047002001E001C1121F49
:10204000002AFBD1704700002DE9FF5FDDE9022087
:10205000010DDDF838B0024318D044F61050A1F25B
:10206000FF3141430D140F98012820D0A5EB0B0040
:10207000401C5FEA000A4FF00004474EDFF81C9155
:10208000A046504616D5CAF1000728E00F98012453
:1020900043A2012808D0002100980F9BC0E900212D
:1020A000C0E90243BDE8FF9F6FEA0B01F4E7CBF103
:1020B0000000DEE7074612E0F80707D02246334665
:1020C00040464946FEF783F8804689462246334615
:1020D00010461946FEF77BF804460E467F10002F87
:1020E000EAD1DDE90201BAF1000F42464B4602DABD
:1020F000FEF76DF801E0FEF7DCF804460E4600221C
:10210000284BFEF77FF903D84FF0FF30014607E078
:102110000022254B20463146FEF73AFAFEF7DFFA59
:10212000102409E0002C0ADB0A220023FEF794F9B0
:10213000019B30321A55641E50EA0102F2D1641C30
:10214000019AC4F1110314440F9A012A03D0012209
:1021500008430DD10AE0084304D000204FF0110BD2
:102160000F9080E7A3EB0B056D1E0DE05B4504DDD2
:102170004FF0000205F1010504E003DA4FF0000220
:10218000A5F10105002AECD000980F99C0E90231B1
:10219000C0E9004586E70000000024400000F03F51
:1021A000300000000000F0430000E03F2DE9FF4F49
:1021B0008BB088460546002606E025280BD0DDE9D1
:1021C0000D1290476D1C761C28780028F5D10FB0B1
:1021D0003046BDE8F08F0024A146A2460122AE4958
:1021E00000E0044315F8013F203B02FA03F00842E7
:1021F000F7D128782A2810D06FF02F022878A0F184
:102200003001092915D809EB890102EB410144F09D
:10221000020400EB01096D1CF0E758F8041B5FEAAB
:10222000010903D544F40054C9F1000944F0020443
:102230006D1C28782E2817D115F8010F44F00404DE
:102240002A280ED06FF02F022878A0F1300109293A
:102250000AD80AEB8A0102EB410100EB010A6D1C6E
:10226000F2E758F804AB6D1C28786C280FD006DC18
:102270004C2817D068280DD06A2814D104E074289F
:1022800010D07A280FD10DE044F400140AE044F491
:10229000801401E044F440146978814202D104F5CD
:1022A00080146D1C6D1C2878692865D006DC002818
:1022B0008DD0632827D0642806D15DE06E2808D031
:1022C00073282AD0752877D0DDE90D129047761C47
:1022D000E0E0C4F30250022809D003280DD0D8F85A
:1022E000001004280DD00E6008F10408D2E0D8F8E0
:1022F0000010F217C1E90062F6E7D8F800100E806E
:10230000F2E70E70F0E718F8041B8DF800100020BB
:102310008DF80100EB46012003E058F804BB4FF0B4
:10232000FF3061074FF0000701D40AE07F1C5745DA
:102330000DDA8742FADB1BF807100029F6D106E018
:102340007F1C8742FCDB1BF807100029F8D1DDE970
:102350000D23A9EB07008146214600F031FC3044F3
:10236000C61904E0DDE90D121BF8010B90477F1E32
:10237000F8D22146484688E058F8040BC4F30251CD
:102380004FF00A0B032900D100B2042900D140B25A
:10239000002802DA40422D2102E0210505D52B213B
:1023A0008DF82410012104E006E0E10710D020217F
:1023B000F6E708AF089113E058F8040BC4F3025194
:1023C0004FF00A0B032900D180B2042900D1C0B21A
:1023D0000021EEE75946FEF729F8303107F8011DD4
:1023E0000028F7D1ADEB070000F1200B600702D504
:1023F00024F4803401E04FF0010ADA4502DDAAEB53
:102400000B0000E00020824600EB0B01089801441D
:10241000A9EB01000A90E00306D4DDE90D23214673
:102420000A9800F0CDFB06444FF0000908E009A926
:1024300011F80900DDE90D12904709F10109761C38
:1024400008998945F3DBE0030CD5DDE90D2321462E
:102450000A9800F0B5FB064404E0DDE90D123020D7
:102460009047761CBAF10001AAF1010AF5DC05E0FB
:10247000DDE90D1217F8010B9047761CBBF1000146
:10248000ABF1010BF4DC0A982146DDE90D2300F0E5
:1024900073FB06446D1C97E6092801002DE9FF4FE8
:1024A00095B09B468946064600250FE2252877D140
:1024B00000242746F84A0121059400E0044316F859
:1024C000013F203B01FA03F01042F7D130782A286F
:1024D00011D06FF02F033078A0F13002092A16D8FE
:1024E000059A44F0020402EB820203EB420210441C
:1024F000761C0590EFE759F8042B0592002A03DAC1
:10250000504244F40054059044F00204761C3078A4
:102510002E2816D116F8010F44F004042A280DD0F5
:102520006FF02F023078A0F13003092B09D807EBA8
:10253000870302EB4303C718761CF3E759F8047BC3
:10254000761C30786C280FD006DC4C2817D0682811
:102550000DD06A2814D104E0742810D07A280FD145
:102560000DE044F400140AE044F4801401E044F463
:1025700040147278824202D104F58014761C761CD5
:10258000307866280BD013DC582877D009DC002877
:1025900075D04528F6D04628F4D047281AD19DE1B9
:1025A00018E0632835D0642879D0652812D195E1E8
:1025B000702873D008DC6728F1D069286FD06E28A6
:1025C0000DD06F2806D1B5E073282CD0752875D0B2
:1025D000782874D05A46179990476D1C75E1C4F35A
:1025E0000250022809D003280DD0D9F80010042881
:1025F0000DD00D6009F1040967E1D9F80010EA1760
:10260000C1E90052F6E7D9F800100D80F2E70D702D
:10261000F0E719F8041B8DF8001000208DF8010078
:10262000EA46012003E059F804AB4FF0FF306107A0
:102630004FF0000102D40DE008F101018846B942D3
:102640000FDA8045F8DB1AF808100029F4D108E009
:1026500008F1010188468142FADB1AF808100029C6
:10266000F6D105985B46A0EB080721463846179A35
:1026700000F0BDFA284400EB080507E04DE029E131
:102680000DE01AF8010B5A4617999047B8F1010866
:10269000F7D25B4621463846179A13E142E00A22F8
:1026A0000092C4F302524FF0000A022A08D059F8EF
:1026B00004CB032A4FEAEC710AD00DE029E02AE0AE
:1026C00009F1070121F00702F2E802C1914609E091
:1026D0000FFA8CFC4FEAEC71042A03D14FFA8CFC00
:1026E0004FEAEC71002907DA0A460021DCF1000C00
:1026F00061EB02012D2202E0220504D52B228DF888
:102700000420012203E0E20701D02022F7E79046EF
:1027100059E00A2102E010220DE010214FF0000ADA
:1027200000910BE010224FF0000A44F00404082747
:10273000009203E008224FF0000A0092C4F3025214
:10274000022A05D059F804CB0021032A08D009E059
:1027500009F1070121F00702F2E802C1914605E004
:102760001FFA8CFC042A01D10CF0FF0C4FF000087A
:10277000220728D5702806D0009B83F0100353EA67
:102780000A0305D00EE040228DF80420012208E063
:102790005CEA010206D030228DF804208DF8050095
:1027A00002229046009B83F0080353EA0A030AD1F1
:1027B0005CEA010201D1620705D530228DF80420C0
:1027C0004FF001087F1E582804D034A003900EA8B3
:1027D00002900DE036A0F9E753466046009AFDF7F7
:1027E0003BFE84460398825C0298401E0290027071
:1027F0005CEA0100F0D1029806A9081A00F1200A4B
:10280000600702D524F4803400E00127574502DD3B
:10281000A7EB0A0000E0002000EB0A0100900598F9
:102820004144401A0590E00306D45B462146179ABE
:10283000059800F0DCF90544002706E001A85A4697
:10284000C05D179990476D1C7F1C4745F6DBE00380
:102850000CD55B462146179A059800F0C8F9054447
:1028600004E030205A46179990476D1C0099481E85
:1028700000900029F5DC08E0029802995A46007899
:10288000491C0291179990476D1CBAF10001AAF1F9
:10289000010AF1DC65E10000092801003031323322
:1028A000343536373839616263646566000000008C
:1028B0003031323334353637383941424344454676
:1028C0000000000000F06AF90544761C307800280A
:1028D0007FF4ECAD19B02846BDE8F08F620700D454
:1028E000062709F1070222F0070CFCE80223E14663
:1028F00003F000485FEA080C02D00FF2702C0DE0E4
:102900005FEA045C02D50FF2682C07E05FEAC47C42
:1029100002D00FF2602C01E0AFF2700C4FF0FF38E4
:1029200023F00043CDF850C065280CD006DC4528C4
:1029300009D046281DD047283DD13DE0662818D053
:1029400067287ED138E00021112F01DB112000E043
:10295000781CCDE9000106A90EA8FFF775FBDDE99B
:102960000F010E9A03910021009207F1010A0491D0
:102970004DE04FF000400097CDE9011006A90EA8E8
:10298000FFF762FBDDE90F0203920E9B1199002213
:10299000DDF80CA00093049211B9791C00EB010A38
:1029A000B7EB0A0004D4C0F1FF3007F1010A04902C
:1029B000AAEB0700019044E0012F00DA0127002173
:1029C000112F01DD112000E03846CDE9000106A9F4
:1029D0000EA8FFF739FBDDE90F010E9A03910021E4
:1029E00004910092BA4621070CD40399514500DAAC
:1029F0008A46BAF1010F05DD009AAAF10101515C86
:102A0000302908D0B84202DA10F1040F06DA0121A9
:102A1000CDE9011015E0AAF10101E9E7002805DC84
:102A2000049901440491AAEB000102E0411C5145C4
:102A300000DD8A460499401A401C01904FF0004086
:102A40000290200704D40198504501DBCDF80480A2
:102A500000208DF84F0002980DF14F07B0F1004FA4
:102A600025D02B200E9002984FF0020800280CDA97
:102A7000404202902D200E9007E00A210298FDF7B7
:102A8000D5FC3031029007F8011DB8F10001A8F122
:102A90000108F2DC02980028EFD1791E0E98087028
:102AA000307800F0200040F0450007F8020D12A831
:102AB000C01B00F107081498007800B1012000EB5A
:102AC0000A01019801EBE07105984144401A401E4B
:102AD0000590E00306D45B462146179A059800F05E
:102AE00086F805441498007818B15A46179990470B
:102AF0006D1CE00324D55B462146179A059800F02B
:102B000076F805441CE00498002807DBDDE90301A2
:102B1000884203DD0098405C179901E01799302046
:102B20005A469047049805F10105401C049001980D
:102B3000401E019004D12E205A46179990476D1CD3
:102B4000BAF10001AAF1010ADDDC05E017F8010B7A
:102B50005A46179990476D1CB8F10001A8F1010879
:102B6000F4DC5B462146179A0598ABE62D00000081
:102B70002B000000200000002DE9F0410446002554
:102B80001E461746880404D405E039462020B04785
:102B90006D1C641EF9D52846BDE8F0812DE9F04191
:102BA000044600251E461746880404D405E039462D
:102BB0002020B0476D1C641EF9D52846BDE8F08181
:102BC0002DE9F041044600251E469046C80301D574
:102BD000302700E02027880404D505E04146384628
:102BE000B0476D1C641EF9D52846BDE8F0812DE97B
:102BF000F041044600251E469046C80301D5302703
:102C000000E02027880404D505E041463846B04757
:102C10006D1C641EF9D52846BDE8F0810A68531C76
:102C20000B60107070470A68531C0B60107070477F
:102C300010B504466FF00400FEF796FEE11704EBB2
:102C40005171C1F3C701074A11701046007800EBBB
:102C50004001C1EBC0104FF6FF7101EAC00002490C
:102C6000088010BD100000201200002070B504463E
:102C70004FF4077094FBF0F0C6B24FF4077094FB6A
:102C8000F0F100FB114085B205E04FF4077000F051
:102C90002FF8701EC6B2002EF7D115B1284600F0ED
:102CA00027F870BD0146114A12784A434FF0E023DD
:102CB0005A6100229A611A46126942F001021A61B1
:102CC00000BF4FF0E022106900F001021AB100F4D9
:102CD0008032002AF5D04FF0E022126922F0010282
:102CE0004FF0E0231A6100229A6170471000002023
:102CF0000146114A12884A434FF0E0235A610022EC
:102D00009A611A46126942F001021A6100BF4FF03F
:102D1000E022106900F001021AB100F48032002AAA
:102D2000F5D04FF0E022126922F001024FF0E023CB
:102D30001A6100229A6170471200002000BF054A04
:102D4000128802F04002002AF9D0C2B2014B9A80E8
:102D500070470000001001402DED048B8CB0002561
:102D600040F698000B904FF47A7B00200A900024E4
:102D70000027804609908146A820FFF759FFFEF7FB
:102D80004DFEFEF76FF9FEF7B9F9FFF787F8FEF78A
:102D900073F8FDF765FDFDF741FD4FF4E13000F0FC
:102DA00029FA4FF4164000F07FFA4FF6FF70FEF755
:102DB0007BF84FF6FF709E49088000209D490880EF
:102DC0009DA2C8210A20FEF7C6FB9EA2DC210A2094
:102DD000FEF7C1FB00F0D2FA29E1B9F1000F06D0ED
:102DE000099800F0010010B14FF4784000E0002095
:102DF000904908804FF6FF708D4908802A4695A1BA
:102E000001A8FFF7EBF801AA00210A20FEF7A3FBB7
:102E100094A101A80B9AFFF7E1F801AA28210A2042
:102E2000FEF799FB5A4693A101A8FFF7D7F801AA2C
:102E300050210A20FEF78FFB0A9808B191A000E00C
:102E400091A0024691A101A8FFF7C8F801AA782134
:102E50000A20FEF780FB012C01D0022C0AD13A4651
:102E60008DA101A8FFF7BAF801AAA0210A20FEF758
:102E700072FB04E08CA2A0210A20FEF76CFB002666
:102E80008D480068C0F3C02040B90A20FFF7EEFE6D
:102E900089480068C0F3C02000B901268648006850
:102EA000C0F3003040B90A20FFF7E0FE8248006816
:102EB000C0F3003000B902267F480068C0F34030FC
:102EC00040B90A20FFF7D2FE7B480068C0F34030CB
:102ED00000B90326012E05D124B9012400274FF0A3
:102EE000000824E0022E05D124B9022400274FF067
:102EF00000081CE0032E07D134B90A9808B9012054
:102F000000E000200A9012E0012E07D1012C05D12B
:102F1000B8F1000F00D00B97002408E0022E06D174
:102F2000022C04D1B8F1000F00D0BB460024FDF7FD
:102F3000C1FC8246012C01D0022C0ED1BAF1090F3E
:102F40000BDCB8F1040F08DA07EB87000AEB40004E
:102F500087B208F1010000F0FF0858480069C0F38B
:102F6000003008B1002525E0FEF7C4FFB0EE408A2E
:102F7000F0EE608A9FED520B53EC102B51EC180BC6
:102F8000FDF740FA15D29FED500B53EC102B51EC8E
:102F9000180BFDF723FA0CD29FED4D0B53EC102BC1
:102FA00051EC180BFDF713F941EC190BFDF7FDF986
:102FB00085B200BF4FF000090A9850B1002D08DD1E
:102FC0005D4501DA4FF001090B98854201DD4FF0B4
:102FD0000209B9F1000F23D001203F4908606420A5
:102FE000FFF744FE00203D49C1F8A002B9F1010FEE
:102FF00001D13BA000E03BA05B46009029463BA0EE
:103000000B9AFEF7DBFFB9F1010F01D134A000E00C
:1030100034A05B460090294634A00B9A00F0C2F819
:103020000998401C80B20990C820FFF71FFED4E623
:1030300090150020921500204E616D653A20585879
:103040005800000049443A203233333031313031B6
:1030500038380000446973743A20253464206D6D5B
:1030600020000000485F54483A20253464206D6DEC
:10307000200000004C5F54483A20253464206D6DD8
:10308000200000004F4E20004F464600416C617208
:103090006D3A202573202000496E7075743A202502
:1030A0003464202020000000202020202020202028
:1030B0002020202020202000100802400000024094
:1030C0000000000000000000000000000083C3407A
:1030D0000000000000002440A082404200804042E6
:1030E0004C4F57004849474800000000414C4152AE
:1030F0004D3A20446973743D25646D6D20485F54DA
:10310000483D25646D6D204C5F54483D25646D6DD0
:1031100020547970653D25730D0A000010B50246F4
:10312000012000E050430B00A1F10104E1B2F9D10C
:1031300010BD00002DE9F043074688461446164EA0
:1031400008F11F0307F11F0241463846FDF73EFB19
:1031500006EBC4164FF0000918E000250FE03078A8
:103160000121A940084020B10C480088FEF716FA5A
:1031700003E00B480088FEF711FA681CC5B2082D61
:10318000EDDB761C09F1010000F0FF09B9F1800FB9
:10319000E3DBBDE8F0830000A00C002092150020C6
:1031A000901500200FB438B505A800900F48009A7C
:1031B0000499FEF727FF002000900C48FDF700F867
:1031C00085B200240DE000BF40210948FEF795FDBF
:1031D0000028F9D00548015D0548FEF75AFE601C3D
:1031E00084B2AC42EFDB38BC5DF814FBBC180020A5
:1031F0000044004010B588B0044601210846FEF79F
:1032000097FA01211020FEF7B3FA0722092124487A
:10321000FDF7FFFD07220A212148FDF7FAFD4FF4D3
:10322000C060069002208DF81C008DF81D00002063
:103230008DF81E0001208DF81F0006A91848FDF723
:10324000A0FD02940020ADF80C00ADF80E00ADF822
:103250001000ADF814000C20ADF8120002A91148BE
:10326000FEF7A8FD01210F48FEF73BFD40210D4868
:10327000FEF72EFD012240F225510A48FEF774FDAB
:1032800025208DF8040003208DF805008DF8060038
:1032900001208DF8070001A8FEF70CFA08B010BD58
:1032A000000002400010014010B588B00446012122
:1032B0000846FEF73DFA01214804FEF749FA0722C5
:1032C00002212A48FDF7A5FD072203212748FDF723
:1032D000A0FD0C20059002208DF818008DF8190033
:1032E00000208DF81A0001208DF81B0005A91F4849
:1032F000FDF747FD01940020ADF80800ADF80A0085
:10330000ADF80C00ADF810000C20ADF80E0001A9CE
:103310001748FEF74FFD01211548FEF7E2FC40215A
:103320001348FEF7D5FC012240F225511048FEF764
:103330001BFD26208DF81C0003208DF81D008DF844
:103340001E0001208DF81F0007A8FEF7B3F942F216
:10335000CF0140F2E730FEF7A5FB002005490880C9
:1033600000210548FEF7CBFB08B010BD000002406D
:1033700000440040981500200014004000B54FF6AE
:10338000FF700B4908804FF478400A4908800022FA
:10339000FA210A20FFF7CEFE0122FA212D20FFF7A5
:1033A000C9FE0222FA215020FFF7C4FE00BD000032
:1033B0009015002092150020D8330008000000204E
:1033C0009C15000076070008084100089C150020A5
:1033D0007C09000038200008412D01020304040587
:1033E00010060708090A19FF01180EBEF77DEFBA8B
:1033F000D6B6B5F39CB294B30408091A34A5F7BD48
:10340000FBDE7DEF3409184C180EFBDEF39CCB5A23
:10341000C73904218210420208112A410883184545
:1034200029C7390C6375AD3CE7BEF74E48113CE740
:10343000B2940842C3188210042145298631022B18
:1034400045295C080B264108C3180842F39C3CE759
:103450004E3808FBDE0C63C318C38E8B0842022D66
:10346000C739C73958080B24042141088210CB5AA8
:10347000BAD64E6DCB5A82104C7C094A4902495249
:10348000295425452983180D1EC84138C64E6D7D27
:10349000EF8E734E180E094A8A523084CF7B8A52BF
:1034A000494A4A042FCB5ACF7B0C635629521AC380
:1034B000520B1E494AA42FF39CC31804214E299293
:1034C000280972947DEF7DEFB2944E680B8A527595
:1034D000ADBEF7BAD64D6BA4080918C3184108CF82
:1034E0007B7CE74E6FBAD6084282104E2F8E73FB5C
:1034F000DEFFFF4448118E73084230843CE77DEFC5
:10350000FFFFB6B5494A500809160421410845296C
:10351000B6B54E2DBEF7718C22494E981E4A52B256
:1035200094BEF7BEF7B294CF7BCF7B494AB6B5F3D2
:103530009C0C6338C6BAD60C6387A22B308466090C
:1035400012014F3CE7CB5A41089E181C4A528A523E
:10355000F39CFFFF7DEFC739C3180C63CB5AB6B598
:10356000B294CB5A75ADFAF2695029A20D148A5261
:1035700079CE50480938C686310421C8419EAD49EC
:103580004AB18CA0780E74A57DEF7CE7BEF779CEAA
:103590000C63C7500809128210452975ADBEF7505B
:1035A0004F34A582108631EE1A8A502D4D6BBAD653
:1035B000181C79CE0D424BCF7BD84F75AD08428693
:1035C000315029F20D12C318B294F2198A6A8CEEA6
:1035D0002950281B8A524A4AD07B7AC67BBE906B00
:1035E000C9398831C939B384BBC6F8B5CC5A4E69DC
:1035F00050080910C420410830843CE7506F3CE774
:103600008A4AC310501901482042093A084A096BF6
:10361000497BC67A05834683C57AC672097B485AB8
:103620008731882188298631504F042141084A4A30
:10363000C8C9012809F7C582500541C729501A4A4F
:10364000042822097B889BC6B321D4A0DCE1E46175
:10365000ED61ED21EDA0E420DC80CB43ABC482061C
:103660005A4721464EE80A29041982108218F39C11
:10367000F2157DEF4D931815A082B8C73109324974
:103680004A867A43C36BEDF4F6EBFD20021C60FD25
:10369000A0021A6002180F20FDE0FCA0FC60F4C13B
:1036A000DB839AC549501619C4208238EC50CB6A86
:1036B000A215FBEE04A112C03813F0C3A0C8414903
:1036C00042059B20FCA4FC69FDE8FD6350494C29A0
:1036D0004E39501EFC20FC41D350100819C43882CA
:1036E000684188DE70495A79CE5014F682C0281697
:1036F000D086C146F141C8457989528862866AC63A
:103700007AC4BBE1FC4C69A01015E0FC60E40393B3
:103710008472446AC5414529C35841A8409812B0F3
:10372000CC600C6B50177DEFCE8382881830F8C4C4
:10373000D80CF38AFA82E882B04569C7510842087A
:103740003A865A839BA2BC22CD21CDA1C422B4C407
:103750007A063A862945290531C4504190D012A8ED
:103760001AA004AC304A4AF0100B7DEF8E73C318D8
:10377000053982A8381DF8C3F84DFB4DFBC7F9C3C6
:10378000F082D8C3B00481456146518649864946D6
:10379000414502100905490461829041B012D01AD6
:1037A000C84A12A8480CB8415882108210B294BE80
:1037B000F74E101BBEF7CF7B82100421862986416D
:1037C000049940E841F886F9CBFA49FA82F812F8F0
:1037D00012F05808E841D841D041C0021AC8481A2E
:1037E000E0021AD80812B82EA8418882484E214B10
:1037F0004529F21815BEF7F39C8210C31845298697
:1038000031C731307CF3DC86E1461BF841021950A8
:103810000910025AE850280AC841A08A9A0C630489
:103820001150234108280D4D6B7DEFFFFFFBDE0893
:103830004242104E180D8631494A38BEFFFF38D635
:1038400086A9CC2AE056D9022AF0B0191A4810D01D
:10385000C3988A8AB2A4BAC6F7B50842410850484C
:103860000D4529F7BDFFFF718C4108042150100B55
:103870000C633CE7FFFF79D646B93810E042C882B6
:10388000A882B041D882E882F041E80229082818CD
:10389000D804C108924D8B34A5FBC6FBD6BACE3CEA
:1038A000E73084C31841085020094108CF7B7DEFE1
:1038B000494A29501A465048393084FFFFFFF7F72C
:1038C000DD09DA83F801F042C08298499AF3B4F333
:1038D000CC71BC8EBB8EBB30BC71BCF3BCB6BDFB27
:1038E000CEBEE77DE73BDFBAD679CEFBDE75AD868F
:1038F0003150214F494AFBDE0421A0101145298790
:1039000039B294FFFFBEF734DD0CEB09FA14F00175
:10391000D81DD88BD27DB2C9012809BEFF7DEFFB2F
:10392000DEFBDE502FBAD678C6C7399C4125C73991
:1039300079CE18088210C318042105F22BB39CA07D
:10394000180875DDC7E9C7F901A211FEE849E2FBD5
:10395000EE50AAF75085B9CE08422DC73938C65067
:103960002D82100421A439F01EFF38DEC4D09E122F
:10397000F812F80E14F008D2FBE650294E29504DEB
:1039800079CEC7399E212B863150212FC318CB5AAF
:103990008631061C7DEFFFCEE80DCFBBC3B041D012
:1039A00041D082B84DB3F07EBEF7BEF73D50680BF4
:1039B000FAD6F7BD042186310421504948380B75E9
:1039C000ADCF7B41088631F7BD34080C12EF74B5DA
:1039D000309C309C72A4BBD69E6B3CE750200D3CC3
:1039E000E7718C81080C63CF7B8210280B8A5238D8
:1039F000C675AD718CB6B52223C739EBCF734009BC
:103A0000104E3E7DEF3BDFFA4E1CFBDEB9EE180E8A
:103A1000C420718CBAD6718CCB5AB294BA80292248
:103A2000292C08091EB6B54629051975A550699EA9
:103A30001808BAD6FCDE4E63429E280BF7BDBEF7CF
:103A4000FFFFFBDEFBDE088901080815F49C04215A
:103A50000521B652ABBEF74E380EFBDEBBD6D17396
:103A600083188639349DBD90D92ED80FFF35D6EBFB
:103A7000CC43B340510519F58CBE22494C594E191F
:103A800050E8113CDF3ABE4F63824940A323B4CCD7
:103A9000833ABE4E2817BFF7B5BD829220F4A0FC32
:103AA00060E4408284418F6B77AD3DE71A3AFE4C6B
:103AB000894E1013FBDE3DE7BBCE369D0B6B416A92
:103AC00060C420FE60F5CE8BC76A38C6EA180C7D4C
:103AD000EF4B7B80B2A0FCA0FCE0021810C0CBC171
:103AE0008A45624D6BB394F7BD3DDFFF2A4950C84C
:103AF0001F7DE73DDFBAC675A58D7B847A40B3E0B4
:103B0000ECE0FDE0FD60F520E5A0D40A6BFBDE50A3
:103B10003ECC9340EB6050182A20FD60FD20F5A0BC
:103B2000D4C0BB429B458B6B9CAE9C718CB39433D1
:103B30009D34A5F2A4F0B4CA9B049B40BB20E420B2
:103B4000FDA0022952D808E0FD20C4885A38F44864
:103B50000978D646AB40DB20F4541A602C39561055
:103B600012DCC0B3C05186290D638F7B0D5BC7414A
:103B700001824CC3C0E32419262AF59EC809809B04
:103B80008662308479CE502832FFFF38C62D9C05DE
:103B90009343A382B3C2BBC2BB22B482A34293C3EA
:103BA0007A85620B637184B6B579CE79C6B5AD708E
:103BB000944A8B06830493049B4302E80E93048388
:103BC00008738D73B39479CE7DEF50380FFFFF3CAF
:103BD000DF38BE75B533A533A5F39C02480C94F3CA
:103BE0009C35A5F8BDFBDEBEF72268197EEFBBD67B
:103BF000F8BDB6AD75AD34A5339D349D35A5B7ADD3
:103C000079C63CE72093FFFF230670231EF0233C78
:103C10007814383806200B381C0FF8FFFF1F30C00F
:103C200001390448088103E0FFFF07C0101A0C04A3
:103C300030081EFCFFFF3F18601AE01412F0121843
:103C400012782F3CFEFFFF7F0C44231C38230E3CD0
:103C5000237F1E23FE1F1A806B14E0FB0716FCC097
:103C60000FE01F1B0FFE1EE1198019451113307064
:103C700014FC7F701B1078102A3C941904140E70E9
:103C800038181507FF7F803F703CC0F9713CF0E0A9
:103C9000733C78C0733C1C0815FFFF783C6B0738F9
:103CA000044A1C041A3C04131C1C14871F1C101407
:103CB000FF0F1CE01F071CFE83031C7CC0F11F1CB0
:103CC000E0E00F1470800F121CD20319AF19C01955
:103CD00074311B1CE0B413FF01140EF001131F78A4
:103CE0001B803F0413733C14C0F11E393F13C007FF
:103CF0001C38E007AF19D81B7C7EA41010F8018097
:103D000067F01FE0E1C37F7C800F1F0C19181119A9
:103D1000F8196511320F1BFE012C19092A80185A57
:103D20003F652971B11B07062C121E1480071C2C3D
:103D300080033C0420081CC0FFFF3FC0191AE03F6D
:103D40001992200807F0F1FF0FF0611AF81029040A
:103D500013FC011F0FECF1FF1FE6142AE22412618D
:103D600010080EE0E1FF0FE0E1091504991C122094
:103D7000D202101070C001C0E1C00380E3E10380F3
:103D8000C7E30123CFE323CF73138F311E300638EF
:103D900018F08C19B21A7C04131E3C180AE006FCB9
:103DA000FFFF038801F0764A78EC1B8007041B03B1
:103DB0000C041B1EFE2C2C0C800310C9041A8C044E
:103DC0001AFC042937E2C01E8001C00180540D1383
:103DD0008007E001044BFFFF08120332082A1C642D
:103DE00033083C29042A1C83191A14FFFF071B0EF1
:103DF000C0612AC06159046AE004190F1AF36932DC
:103E0000FF4A7EB401164A080121331818E5486CB0
:103E1000241228082424247F12121204392F280C7B
:103E20001C2A2A0A0C1828282A2A1C3611500C226F
:103E3000251515152A58545454221A0C2930080AED
:103E400076252911916E1C060604A1A14D40201073
:103E5000107125101020402B02040A29015D08086A
:103E60000402913D6B1C1C6B5C79A14A7FA3D1A914
:103E70005B0213FE4306063D80404020743C040470
:103E800002604C182442012A24F0195F4A0E905413
:103E900008083E1A3C1B19326D0804427E10500976
:103EA000201820404042221C500C2030282424227C
:103EB000227E2020788F7E0202021A26202B3824B0
:103EC0001089606C7E2222F379603A2485523C3955
:103ED0000B4E6458404024402913393A490649A4FE
:103EE00049063308042A409C870204081020405ADF
:103EF0007F0451491B392569701A460F6A10501DFD
:103F00001C225A55016A2DB0500C080818141424AC
:103F10003C224242E71E1F2222221E0E5442221F32
:103F20002D7C4242010169302A1F1C29015920B809
:103F30000C3F4212121E12120242423F104C020269
:103F400007801B22223E5C712122402AE73C2A7E08
:103F50000549706B3E08014A3E707A100133110F1B
:103F6000500C7722120A0E0A12122222771A075ACE
:103F700039014A42F31B7736012A2A01526B580C49
:103F8000E346464A4A525252626247F04A41015958
:103F9000802A3F7B2A3E4149A059206E4D53321C56
:103FA00060202A3E6F4B42C7901808424202041814
:103FB000204016516B7F49B099D039016A3C1050AE
:103FC0000922242414141808081B6B49015F555555
:103FD0003622222220480A2424181818242442E7D2
:103FE000C09D2222141450300C7E21201010080491
:103FF0000442423F6A786D290132781D02020404AE
:104000000B1008101020202040409B1E1001221E83
:10401000031C384412FF4A0695F150083C4278448C
:104020004242FC1F030202021A26CF93261A1B38B3
:1040300044155344382D604040402E9C4264D84083
:10404000567E0202423C3EF08808087EAF923E381F
:10405000087C22221C023C422229601B3A46405323
:1040600042E7230C0C9A0E301B30307019DD190119
:104070001A22D13930500872120A16122277492CAE
:10408000C9602B7F920192B79A3B6049A0290149F0
:10409000A0412A1BE075221E020739D075447840E2
:1040A000E01C774C04018A1FC06E42023C40427003
:1040B000197A398019A9712A635F9362DC9008E745
:1040C0004224241408089008EB494955552222C877
:1040D000087624181818246E306C180808903008D8
:1040E0007E22100808447E2BC020013A10061320BF
:1040F000C0DA1001113A068A192E2901120604119C
:084100000C32C245813C622B28
:040000050800018965
:00000001FF
